:020000040800F2
:1000000000500020712F0008552C0008572C0008C4
:1000100000000000000000000000000000000000E0
:10002000000000000000000000000000592C000843
:1000300000000000000000005B2C00085D2C0008A0
:10004000C12F0008C12F0008C12F0008C12F0008D0
:10005000C12F0008C12F0008C12F0008C12F0008C0
:10006000C12F0008652C0008752C0008C12F00085E
:10007000C12F0008C12F0008C12F0008C12F0008A0
:10008000C12F0008C12F0008C12F00080000000088
:10009000C12F0008C12F0008C12F0008C12F000880
:1000A000C12F0008C12F0008C12F00088D2C0008A7
:1000B000C12F0008C12F0008C12F0008C12F000860
:1000C00010B5064C2378002B07D1054B002B02D02E
:1000D000044800E000BF0123237010BDD8010020B8
:1000E0000000000048340008044B10B5002B03D07A
:1000F0000349044800E000BF10BDC04600000000F6
:10010000DC010020483400080023C25C0133002ACF
:10011000FBD1581E70470000002243088B4274D365
:1001200003098B425FD3030A8B4244D3030B8B42F8
:1001300028D3030C8B420DD3FF22090212BA030C01
:100140008B4202D31212090265D0030B8B4219D3E2
:1001500000E0090AC30B8B4201D3CB03C01A524102
:10016000830B8B4201D38B03C01A5241430B8B424A
:1001700001D34B03C01A5241030B8B4201D30B0333
:10018000C01A5241C30A8B4201D3CB02C01A52415A
:10019000830A8B4201D38B02C01A5241430A8B421D
:1001A00001D34B02C01A5241030A8B4201D30B0206
:1001B000C01A5241CDD2C3098B4201D3CB01C01A20
:1001C000524183098B4201D38B01C01A524143092A
:1001D0008B4201D34B01C01A524103098B4201D318
:1001E0000B01C01A5241C3088B4201D3CB00C01A85
:1001F000524183088B4201D38B00C01A52414308FD
:100200008B4201D34B00C01A5241411A00D2014621
:10021000524110467047FFE701B5002000F006F894
:1002200002BDC0460029F7D076E770477047C04648
:10023000002B11D1002A0FD1002900D1002802D0B3
:100240000021C943081C07B4024802A140180290CB
:1002500003BDC046D9FFFFFF03B4684601B502984D
:1002600000F006F8019B9E4602B00CBC7047C046E9
:10027000F0B54F464646D646C0B5040082B00D00E4
:10028000914698468B422FD82CD04146484600F0E4
:10029000B1F829000600200000F0ACF8331A9C46A3
:1002A000203B9A4600D576E04B46524693401F00CD
:1002B0004B46624693401E00AF4228D825D0534695
:1002C000A41BBD41002B00DA7BE00022002300923A
:1002D00001930123524693400193012362469340C8
:1002E000009318E08242D0D90022002300920193AB
:1002F0000A9B002B01D01C605D600098019902B040
:100300001CBC90469946A246F0BDA342D7D9002214
:100310000023009201936346002BE9D0FB07984627
:10032000414672080A437B0866460EE0AB4201D1A3
:10033000A2420CD8A41A9D41012024196D4100212C
:10034000013E24184D41002E06D0AB42EED9013EAD
:1003500024196D41002EF8D10098019953460019D7
:100360006941002B23DB2B005246D3402A00644610
:10037000E2401C0053461500002B2DDB260057469B
:10038000BE40330026006746BE403200801A9941C5
:1003900000900191ACE7624620239B1A4A46DA405E
:1003A0006146130042468A4017001F4380E76246B9
:1003B00020239B1A2A0066469A402300F3401343E9
:1003C000D4E76246202300219B1A0022009101926B
:1003D0000122DA40019280E72023624626009B1A20
:1003E000DE402F00B0466646B74046463B003343EA
:1003F000C8E7C04610B5002903D100F007F8203047
:1004000002E0081C00F002F810BDC0461C210123C8
:100410001B04984201D3000C10391B0A984201D3E7
:10042000000A08391B09984201D30009043902A2C5
:10043000105C40187047C04604030202010101012C
:10044000000000000000000010B50400094B18680F
:10045000FA218900FFF760FE00F028FB002801D098
:10046000012010BD013000222100404200F0E4FADA
:100470000020F6E70400002010B5084A1368402168
:100480000B4313600020FFF7DFFF041E02D001249E
:10049000200010BD02F0D0FBFAE7C0460020024069
:1004A000024A1368013313607047C046A802002057
:1004B000014B18687047C046A802002070B50400C0
:1004C000FFF7F6FF0500631C00D00134FFF7F0FFD3
:1004D000401BA042FAD370BD10B582B00400084B97
:1004E00018680849FFF718FE4443019402E0019B95
:1004F000013B0193019B002BF9D102B010BDC04616
:100500000400002040420F0070B5040002689168AA
:1005100003230B40012B0DD09168184B19420ED0CC
:10052000636D102213436365A36D0F3A1343A365F4
:10053000012070BD1368DB07EED50020F9E7936852
:1005400001210B4393600120FFF7C6FFFFF7B0FFC7
:10055000050023681B68DB070ED4FFF7A9FF401BCB
:100560000A28F6D9636D102213436365A36D0F3A11
:100570001343A3650120DCE70020DAE717000080C1
:1005800070B5041E00D1E0E0436D002B2ED0636DEA
:10059000DB0631D421688B6804221A402CD1636DAC
:1005A0006B4803400630FF300343636588680323CC
:1005B0000340012B29D06368C0200006834228D065
:1005C0008020C005834224D080200006834220D0B2
:1005D0000B699B009B080B615E4B19685E480140EC
:1005E000196019686068014319601BE08365502237
:1005F000835401F0DFFFCAE7636D10221343636584
:1006000050230022E254012070BD0B68DB0713D495
:10061000D1E70B699B009B080B6121680B6960683F
:1006200003430B612168CB6818208343CB602168AA
:10063000CB68A0680343CB60464B1968474801402C
:1006400019601968606B4006014319602368996856
:10065000C90004D498688021490501439960216844
:10066000CB683F480340CB602068C168E3682569D8
:10067000022D2DD013432022A25C520313432C22BF
:10068000A25C52001343226B1343A26992031343EB
:10069000E269D20313430B43C360636AC222FF3291
:1006A000934205D02168CA68A06A03431343CB6014
:1006B0002123E35C012B0DD0E36B012B1ED02368BB
:1006C0001A69D2072DD51A6901218A431A6128E0D7
:1006D0000422CFE71F33E35C002B06D12268D168E8
:1006E00080235B020B43D360E6E7636D2022134354
:1006F0006365A36D1F3A1343A365DDE722681369A1
:1007000018490B40136121680A69236C606C03432C
:10071000A06C034313430B612268136901210B434F
:1007200013612268536907218B435361226853691F
:10073000A16B0B4353610023A365636D03229343B5
:10074000023A1343636500205EE701205CE7C04680
:10075000FDFEFFFF08270140FFFFC3FFFFFFFFFD76
:100760001902FEFF03FCFFFFF8B504000E0017009E
:1007700003689B685B073ED45023C35C012B3CD0CD
:1007800050230122C254C369012B32D0FFF7BCFEB3
:10079000051E2CD1636D1A4A1A4080235B00134357
:1007A00063650023A3655022A354E36C154ADA6203
:1007B000E36C154A1A63E36C144A5A6323681C22DB
:1007C0001A602268536810210B4353602268D36873
:1007D0000F390B43D360216840313B003200E06C9D
:1007E00000F0E4F92268936804210B439360280029
:1007F000F8BD0025CEE70225F9E70225F7E7C04658
:10080000FEF0FFFF150800088B0800089708000895
:100810007047000010B5836A5A6D5021114203D011
:10082000DB6C5B6B984710BD596D802292000A43C8
:100830005A651A68D068C0210901084214D12021E4
:10084000595C002910D1116809070DD59168490735
:100850000ED451680C20814351605A6D09490A40F9
:100860000431FF310A435A651800FFF7D1FFDAE778
:100870005A6D20210A435A659A6D1F390A439A65B9
:10088000F2E7C046FEFEFFFF704710B5806AFFF733
:10089000FBFF10BD704710B5806A436D40221343C3
:1008A0004365836D3C3A13438365FFF7F3FF10BD47
:1008B00070B504000D005023C35C012B5CD05023A5
:1008C0000122C25403689A68520723D42B4A49680C
:1008D000914232D0996A2A685203520B0A439A62B3
:1008E0002B685B031FD42B689B0305D5244A116832
:1008F0008023DB030B4313602B68DB0305D5204A01
:10090000116880235B040B43136050230022E254E0
:10091000002070BD436D2022134343655023002205
:10092000C2540120F5E7164A116880231B040B43CB
:1009300013600A20FFF7D0FDD5E7996A2A685203B1
:10094000520B914399622B685B0304D50C4A1368E0
:100950000C490B4013602B689B0304D5084A1368AD
:1009600009490B4013602B68DB03CED5044A13689A
:1009700006490B401360C8E70220CAE701100000D7
:1009800008270140FFFF7FFFFFFFBFFFFFFFFFFEC4
:1009900070B504005023C35C012B49D050230122C1
:1009A000C2540368996802320A40012A08D11A68C1
:1009B000D20705D5436D202213434365012033E060
:1009C000626D1C490A400631FF310A436265DE68E8
:1009D00001310E40DA688A43DA6022689168802328
:1009E0001B060B439360FFF763FD050023689A68BD
:1009F000002A0FDAFFF75CFD401B0A28F6D9636D69
:100A000012229343023A1343636550230022E254B7
:100A100001200CE0DA681643DE60636D0322934325
:100A2000023A13436365002050230022E25470BD54
:100A30000220FCE7FDFEFFFF70B5002811DB8408F3
:100A4000134DC034A400625903231840C000FC3386
:100A50001E008640B24389010B408340134363511B
:100A600070BDC0B20F220240083A920806329200CE
:100A7000084BD3185D6803242040C000FF221400F7
:100A80008440A54389010A4082402A435A60E7E72F
:100A900000E100E000ED00E01F2318401E3B834012
:100AA000014A13607047C04600E100E001380A4B7C
:100AB00098420FD8094A50600948036A1B021B0A72
:100AC000C02109060B4303620023936007331360C0
:100AD000002070470120FCE7FFFFFF0010E000E06E
:100AE00000ED00E070B51C25446C2540066C012427
:100AF000AC407460046863608368102B04D00368A2
:100B000099600368DA6070BD03689A600368D96011
:100B1000F9E7000070B5041E3DD005681F4BE818CA
:100B20001421FFF7F9FA800060641D4B236425232C
:100B30000222E2542B681B4A1A40A368E1680B4367
:100B400021690B4361690B43A1690B43E1690B43C5
:100B5000216A0B4313432B608023DB01A2689A4276
:100B600010D0114B19681C22656C15400F20A8404D
:100B7000814319601968606C02406068904002000F
:100B80000A431A600023E36325220121A154013A9C
:100B9000A354002070BD0120FCE7C046F8FFFDBF54
:100BA000000002400F80FFFFA800024070B5040063
:100BB0002420205C012832D0242001252554013036
:100BC000205C012804D024230022E254022070BDBE
:100BD0002430013525540020E0632568286801266B
:100BE000B04328602000FFF77DFF236B002B0BD064
:100BF000226813680E210B431360226813680121D9
:100C00000B4313600020E2E72268136804218B4342
:100C100013602268136806310B431360EDE702206E
:100C2000D5E710B52523C35C022B06D00423C3638C
:100C300020330022C254012010BD026813680E2127
:100C40008B43136001680A6801239A430A601C22DF
:100C5000416C0A40016C1C0094404C602522835476
:100C600023330022C2540020E6E710B52523C35CDD
:100C7000022B03D00423C363012010BD0268136854
:100C80000E218B43136001680A6801239A430A60AE
:100C90001C22416C0A40016C1C0094404C602522CF
:100CA000835423330022C254836B002B02D0984715
:100CB0000020E2E70020E0E770B5036C19680468E3
:100CC00025681C23426C134004229A40114214D020
:100CD0006A0712D523689B0603D423680422934332
:100CE00023601C22436C1A40016C042393404B6028
:100CF000036B002B00D0984770BD02229A4011422E
:100D00001AD0AA0718D523689B0606D423680A229E
:100D1000934323602523093AC2541C22436C1A4092
:100D2000016C022393404B6024230022C254C36A07
:100D3000002BE1D09847DFE708229A401142DBD030
:100D40002B07D9D523680E22934323600E32436CC0
:100D50001A40016C01231C0094404C60C36325229F
:100D6000835423330022C254436B002BC4D09847D2
:100D7000C2E7C06B70470000F0B5C64600B500235F
:100D800038E0052600E00026AE4035003D43023441
:100D9000A400584EA551584C25684246D4432E0015
:100DA00026404A68D20302D5424615432E00524DD2
:100DB0002E606D682E0026404A68920302D5424696
:100DC00015432E004C4D6E60AD682E0026404A68DB
:100DD000D20202D5424615432E00474DAE60ED6863
:100DE0002C404A68920202D542462A431400424AE5
:100DF000D46001330A681400DC4077D001249C40A1
:100E000022409046F5D04D68022D01D0122D0ED112
:100E1000DD080835AD002F5807261E40B6000F220A
:100E2000B24097430A69B24016003E432E504D68C7
:100E30006E1E012E03D9112D01D0122D12D18568FD
:100E40005F000326BE40B5432E00CD68BD4035434C
:100E500085604568A5434A681609012434409C40D2
:100E60002C43446007685E0003242500B540ED4331
:100E70002F404A681440B4403C430460C468254095
:100E80008C68B4402C43C4604A68D200B1D51B4D75
:100E90006C6B012634436C639C08A51CAD00154E99
:100EA000AF5903261E40B5000F26AE40B743A0261B
:100EB000F605B04200D166E7114EB0420ED0114E99
:100EC000B0420DD0104EB0420CD0104EB0420BD0FC
:100ED0000F4EB04200D154E7062655E7012653E7EE
:100EE000022651E703264FE704264DE704BC90464F
:100EF000F0BDC04600000140000401400010024067
:100F00000004005000080050000C00500010005079
:100F1000001C005003690B4201D1002070470120E2
:100F2000FCE7002A01D1816270478161FCE7000083
:100F300010B5264BD9680C230B40082B42D00C2B44
:100F400011D0042B09D0214B5A68520B07231340B0
:100F5000013380200002984010BD1C4B1B68DB064B
:100F600032D51B48F8E78A0C0F231340194AD05C8E
:100F7000890D032211400131144BDB68DB030DD4D2
:100F8000124B1B68DB0613D54201121A93019B1A00
:100F9000DB001B181802FFF7BFF8DDE74201121A49
:100FA00093019B1ADB001B185802FFF7B5F8D3E733
:100FB0004201121A93019B1ADB001B189802FFF7DB
:100FC000ABF8C9E70448C7E70448C5E7001002408A
:100FD00000093D00A834000800127A000024F40043
:100FE000F0B583B0041E00D19FE2C44BDA680C2533
:100FF0001540DA688026760216400368DB0736D58E
:10100000082D2CD00C2D28D06368802252029342E8
:1010100055D0A022D202934258D0B84B1A68B84992
:101020000A401A601A68802149020A400192019A16
:101030001A68B4490A401A606368002B52D0FFF75F
:1010400037FA0700AD4B1B689B0310D4FFF730FA4B
:10105000C01B6428F6D9032068E2002ED4D0A74B29
:101060001B689B0303D56368002B00D160E22368F3
:101070009B076CD5E3689A0605D5A0480268202135
:101080000A4302608B43042D3CD00C2D38D0002B3A
:1010900000D1AEE099490A680920824313430B60EE
:1010A000FFF706FA0600954B1B685B0700D597E033
:1010B000FFF7FEF9801B0228F5D9032036E28F4A9C
:1010C000116880235B020B431360B5E78B4B1968F3
:1010D0008022D2020A431A601968802252020A430F
:1010E0001A60A9E7FFF7E4F90700844B1B689B032C
:1010F000BDD5FFF7DDF9C01B6428F6D9032015E242
:10110000002EC4D17D4A1268520702D5002B00D1AF
:1011100010E27A4E72687C490A40216909020A434A
:101120007260326809218A4313433360FFF700FF7E
:10113000F26812090F231340744AD35CD840744BF1
:1011400018600020FFF780F9002800D0EEE1236846
:10115000DB062CD5002D5FD1684B1B689B0503D5A2
:10116000E369002B00D1E7E1644A536869490B4009
:10117000616A0B43536053681B021B0A216A09060C
:101180000B435360636A590B013180231B028B4070
:10119000D16809090F220A405C498A5CD3405C4A45
:1011A00013600020FFF750F9002800D0BEE123684B
:1011B0001B077DD56369002B67D0504A136D012151
:1011C0000B431365FFF774F906004C4B1B6D9B072F
:1011D0006ED4FFF76DF9801B0228F6D90320A5E134
:1011E00046494B68484A13402269120213434B6038
:1011F000ADE7424A136801218B431360FFF758F9AA
:1012000006003E4B1B685B07A1D5FFF751F9801B19
:101210000228F6D9032089E1E369002B22D0374A5E
:10122000116880235B000B431360FFF741F9060050
:10123000324B1B689B0506D4FFF73AF9801B022846
:10124000F6D9032072E12D4A536832490B40616A96
:101250000B43536053681B021B0A216A09060B43A8
:101260005360A4E7254A13682B490B401360FFF72E
:101270001FF90600214B1B689B0598D5FFF718F94D
:10128000801B0228F6D9032050E11C4A136D01216E
:101290008B431365FFF70CF90600184B1B6D9B077A
:1012A00006D5FFF705F9801B0228F6D903203DE19A
:1012B00023685B0700D48CE0104B9B6BDB001BD4D6
:1012C0000E4A916B80235B050B4393630126134BFE
:1012D0001B68DB0526D5A36880225200934235D0D7
:1012E000002B4BD1054B1A6D0B490A401A651A6D3C
:1012F0000B490A401A652FE00026E8E7001002407B
:10130000FFFFFEFFFFFFFBFFFFE0FFFFB43400081D
:1013100004000020FF1FFFFFFFFEFFFF00700040E2
:10132000FFFBFFFF884A116880235B000B431360BB
:10133000FFF7BEF80700844B1B68DB05CBD4FFF733
:10134000B7F8C01B6428F6D90320EFE07F4A116D7F
:1013500080235B000B431365A368002B28D0FFF7A5
:10136000A7F80700794B1B6D9B0530D4FFF7A0F859
:10137000C01B774B9842F5D90320D7E0A022D200BA
:10138000934209D0714B1A6D72490A401A651A6D61
:1013900071490A401A65DFE76C4B196D013AFF3A53
:1013A0000A431A65196D802252000A431A65D3E771
:1013B000FFF77EF80700654B1B6D9B0507D5FFF710
:1013C00077F8C01B624B9842F5D90320AEE0012E9E
:1013D00021D023689B063CD5A369002B21D05B4B11
:1013E00099680120014399605A6B02435A635B4A32
:1013F000116A80239B010B431362FFF759F8060023
:10140000524B9B689B0724D4FFF752F8801B02289D
:10141000F6D903208AE04D4A936B51490B40936300
:10142000D7E74A4A936801218B4393604B4A136A7A
:101430004C490B401362FFF73BF80600434B9B6897
:101440009B0706D5FFF734F8801B0228F6D9032046
:101450006CE0A36A002B00D170E00C2D49D0022B68
:1014600012D03A4A136840490B401360FFF720F846
:101470000400364B1B689B0139D5FFF719F8001B98
:101480000228F6D9032051E0304A136836490B4050
:101490001360FFF70DF805002C4B1B689B0106D568
:1014A000FFF706F8401B0228F6D903203EE0274943
:1014B000CB682E4A1340E26A206B0243606B024302
:1014C0001343CB600A6880235B0413430B60FEF771
:1014D000EFFF04001D4B1B689B0106D4FEF7E8FFDD
:1014E000001B0228F6D9032020E000201EE0002087
:1014F0001CE0012B24D0154BDA6880235B021340DB
:10150000E16A8B4201D0012010E0F0239B031340DD
:10151000216B8B4201D0012008E0C0231B041A403C
:10152000636B9A420ED0012000E0012003B0F0BDB1
:101530000120FBE70120F9E70120F7E70020F5E7AC
:101540000120F3E70020F1E70070004000100240A6
:1015500088130000FFFEFFFFFFFBFFFF00000140BC
:10156000FFFFFFEFFFDFFFFFFFFFFFFEFFFF02FFB9
:1015700070B504000D00002800D1BAE05F4B1A6876
:10158000012313408B420BD25C490B680122934329
:101590002B430B600B681A40AA4201D00120A9E03E
:1015A00023689B0706D5564AD368F0218B43A16870
:1015B0000B43D3602368DB0764D56368022B09D033
:1015C000032B29D0012B2DD04D4A1268920506D449
:1015D00001208FE04A4A1268920300D48BE0484908
:1015E000CA68032082431343CB60FEF761FF060005
:1015F0006368022B1CD0032B28D0012B34D0404B26
:10160000DB680C221A423DD0FEF752FF801B3D4B97
:101610009842F4D903206DE0394A12689201DED471
:10162000012067E0364A12685207D8D4012061E0F1
:10163000334BDA680C231340082B23D0FEF738FF16
:10164000801B304B9842F3D9032053E02C4BDA68CF
:101650000C2313400C2B15D0FEF72AFF801B294BBF
:101660009842F3D9032045E0254BDA680C23134058
:10167000042B07D0FEF71CFF801B224B9842F3D9A6
:10168000032037E01D4B1A6801231340AB420BD9EE
:101690001A490B68012293432B430B600B681A40D5
:1016A000AA4201D0012025E023685B0706D5144A31
:1016B000D36815490B40E1680B43D36023681B07CF
:1016C00007D50F49CB68114A13402269D200134352
:1016D000CB60FFF72DFC0A4BDA6812090F23134089
:1016E0000B4AD35CD8400B4B18600020FEF7ACFED1
:1016F00000E0012070BD0120FCE7C0460020024050
:101700000010024088130000FFF8FFFFFFC7FFFF33
:10171000B434000804000020014B18687047C0462C
:101720000400002010B5FFF7F7FF044BDA68120A37
:1017300007231340024AD35CD84010BD001002407A
:10174000C434000810B5FFF7E7FF044BDA68D20A8B
:1017500007231340024AD35CD84010BD001002405A
:10176000C434000870B5040082231B0102681A42C9
:101770005AD0754B9B6BDB0000D59DE0724A916B94
:1017800080235B050B4393630125704B1B68DB05CE
:1017900000D493E06C4B1A68C0239B031A40616825
:1017A0000B40934200D19EE0C0239B020A001A40E6
:1017B0009A4200D19FE0644B1B6DC02292021340FD
:1017C0001FD01140994202D02268920608D4C0224C
:1017D0009202A1680A409A4213D023681B0510D5D3
:1017E000594B186D5A4A02401E6D8021090331433E
:1017F0001965196D574E314019651A65C30500D535
:1018000080E06368C022920219001140914200D129
:1018100088E04D490B6DC02292026068024013437C
:101820000B65012D00D187E02368DB0706D5464A0A
:10183000D36C03218B43E1680B43D36423689B077C
:1018400006D5414AD36C0C218B4321690B43D364E9
:1018500023685B0706D53C4AD36C3F490B4061695E
:101860000B43D36423681B0706D5374AD36C3B4927
:101870000B40A1690B43D3642368DB0506D5324ACC
:10188000D36C33490B40E1690B43D36423685B0697
:1018900006D52D4AD36C32490B40616A0B43D364A1
:1018A00023681B064ED5284AD36C2E490B40216A6B
:1018B0000B43D364002070BD002566E7234A1168FE
:1018C00080235B000B431360FEF7F2FD06001F4B05
:1018D0001B68DB0500D55DE7FEF7EAFD801B642889
:1018E000F5D90320E7E7C0239B03A0680340934298
:1018F00000D059E75FE7144B1B689B0300D45AE7FD
:101900000120D8E7FEF7D4FD06000F4B1B6D9B05A9
:1019100000D576E7FEF7CCFD801B134B9842F4D937
:101920000320C8E708490A6810480240C020800325
:10193000034013430B606CE70A008B6B0C490B40B0
:10194000936371E70020B6E700100240007000408A
:10195000FFFFFCFFFFFFF7FFFFF3FFFFFFCFFFFFDE
:10196000FFFFFFFBFFFFF3FF88130000FFFFCFFF28
:10197000FFFFFFEF03688022D205904208D0154A8E
:10198000904205D0144A904202D0144A904203D1AA
:10199000702293434A6813438022D205904208D0B4
:1019A0000C4A904205D00C4A904202D00B4A904219
:1019B00003D10B4A1340CA681343802293430A6938
:1019C000134303608B68C3620B6883620123436126
:1019D0007047C04600040040000801400014014068
:1019E000FFFCFFFF70B5041E14D03923C35C002B2D
:1019F0000AD0392502236355211D2068FFF7BAFF5D
:101A000001236355002070BD38330022C25401F019
:101A100011FAEEE70120F6E739230222C2540268E8
:101A20009168323B0B40062B03D0136801210B4316
:101A3000136039230122C25400207047F0B53823C7
:101A4000C35C012B1BD0382601239C4683553927C4
:101A50000133C3550268546893687025AC430D6820
:101A60002C438025AB431D004B682B435460026818
:101A700093606346C355002383550020F0BD0220C8
:101A8000FCE700000268136806490B401360026817
:101A900093682331FF318B439360202383670023B6
:101AA00003667047DFFEFFFF30B5836F202B6DD1DB
:101AB000002900D16CE0002A00D16BE0836880240B
:101AC0006401A3421AD07024045D012C64D07024F8
:101AD00001250555416558214252023142520022EA
:101AE00002668022520193420FD0002B1CD1036961
:101AF000002B15D15C33FF22C2521CE00469002C7C
:101B0000E1D1CC07DFD5012041E00369002B03D1EF
:101B10005C33224AC2520EE05C23FF22C2520AE02A
:101B20005C237F22C25206E08022520593421CD0E1
:101B30005C230022C2520023C367223383670268FA
:101B4000936801210B43936080235B0182689A4272
:101B500016D0134B036670230022C254026811682A
:101B6000B0330B431360002011E00369002B03D155
:101B70005C337F22C252DEE75C233F22C252DAE7A7
:101B80000369002BE5D1074B0366E4E7022030BD73
:101B90000120FCE70120FAE70220F8E7FF0100003E
:101BA000751C0008D91C000810B5040002681368F1
:101BB00028490B40136002689368E331FF318B437F
:101BC000936003689A6812060DD59A687F318A433C
:101BD0009A60836E002B06D000229A63806EFFF716
:101BE00020F8002824D123689A6852060DD59A68F7
:101BF00040218A439A60E36E002B06D000229A634C
:101C0000E06EFFF70EF800281BD100235222A352EA
:101C10000832A35222680F21116221688A690820C4
:101C200002438A6120226267A267E367002010BD39
:101C3000A06EFFF79EF82028D5D11023E3671D384A
:101C4000F5E7E06EFFF795F82028DED11023E36773
:101C50001D38ECE71FFEFFFF704710B502681368E0
:101C600040218B4313602023436700234366FFF723
:101C7000F3FF10BD10B55C23C35A826F222A05D032
:101C80000268936908210B43936110BD0268526A90
:101C9000DBB21340426D1370436D013343655A222A
:101CA000835A013B9BB28352835A9BB2002BECD1E7
:101CB0000268136807490B40136002689368233178
:101CC000FF318B439360202383670023036600F07A
:101CD00011FFDAE7DFFEFFFF10B55C23C25A836F06
:101CE000222B05D00268936908210B43936110BD34
:101CF00003685B6A1340426D1380436D0233436592
:101D00005A22835A013B9BB28352835A9BB2002BC7
:101D1000EDD10268136808490B40136002689368AC
:101D20002331FF318B4393602023836700230366B5
:101D300000F0E0FEDBE7C046DFFEFFFF704700007B
:101D400070B504000168CB6908688D680F221A40DD
:101D50000AD19E0608D5860606D5236E002B00D133
:101D600089E02000984786E0002A6BD001222A40B3
:101D700003D190267600304264D0DD0706D5C50534
:101D800004D501250D62E16F2943E167990708D564
:101D9000002A06D0216802250D62E16F0235294331
:101DA000E167590708D5002A06D0216804250D628D
:101DB000E16F023D2943E167190709D5810601D486
:101DC000002A05D0226808211162E26F0A43E26707
:101DD000E26F002A4FD09B0606D5830604D5236EFA
:101DE000002B01D020009847E26F23689B685B06B8
:101DF00001D4130720D52000FFF744FE23689A681A
:101E0000520615D59A6840218A439A60E36E002BEA
:101E10000AD01B4A9A63E06EFEF727FF00282AD0FB
:101E2000E06E836B984726E02000FFF787FF22E0F3
:101E30002000FFF783FF1EE02000FFF77FFF002355
:101E4000E36718E0DA0201D56A0209D41A060ED552
:101E500002060CD5636E002B0DD0200098470AE0D7
:101E600080235B030B62200000F05EFB03E05B0657
:101E700001D5430600D470BD2000FFF7EEFEFAE75F
:101E8000851E000810B5806A00235A228352083A42
:101E90008352FFF753FF10BDD0B50400016883687B
:101EA0000269134342691343C26913430A68BA487B
:101EB000024013430B6022685368B8490B40E16845
:101EC0000B435360A1692268B54B9A4201D0236A43
:101ED00019439368B34803400B4393602368B24AA5
:101EE00093421CD0B14A93422DD0B14A93425FD065
:101EF000B04A93425ED0AA4A934239D01022A849F0
:101F00008B425BD080231B02E169994200D190E0B3
:101F1000082A00D971E19200A74B9B589F46A74A17
:101F2000D16C03220A40012A09D0002A05D0022AD6
:101F30003AD0032A05D01022E1E70122DFE704228C
:101F4000DDE70822DBE79D4AD16C0C220A40042A17
:101F50000AD005D9082A29D00C2A07D10822CEE7B1
:101F6000002A03D10022CAE70422C8E71022C6E7EC
:101F7000924AD26CC02109010A408021C9008A42DC
:101F80000ED009D9802109018A4215D0C02109014A
:101F90008A4207D10822B2E7002A03D10022AEE725
:101FA0000422ACE71022AAE70222A8E70222A6E751
:101FB0000022A4E70022A2E70222A0E7022A2DD0F5
:101FC00007D9042A30D0082A00D019E18020000265
:101FD00007E0002A00D013E1FFF7A4FB002800D19E
:101FE00010E1626853009B18834200D90CE113038F
:101FF000834200D20AE1070E060250080021801930
:1020000079410023FEF714F96D4BC2186D4B9A42CB
:1020100000D9FDE02368D860002085E0674B1B688D
:10202000DB0604D46848DCE7FEF782FFD6E76748A2
:10203000D7E7082A62D89200654B9B589F46FFF766
:1020400071FB400063685B08C0186168FEF764F8C4
:1020500003041B0C00205F491A00103A8A4200D981
:10206000D8E00F22190091435B08083A13400B4354
:102070002268D36058E0FFF765FB400063685B08A7
:10208000C0186168FEF748F803041B0C0020E2E763
:102090004A4B1B68DB060BD5636858084E4B9C46C1
:1020A00060446168FEF738F803041B0C0020D2E797
:1020B00063685808494B9C4660446168FEF72CF8F9
:1020C00003041B0C0020C6E7FEF732FF40006368E4
:1020D0005B08C0186168FEF71FF803041B0C0020A2
:1020E000B9E76368580880235B029C4660446168D6
:1020F000FEF712F803041B0C0020ACE701200023BC
:10210000A9E7FFF70FFB63685B08C0186168FEF77B
:1021100003F803041B0C00202E491A00103A8A42CF
:1021200000D979E02268D360002323666366D0BDBE
:10213000FFF708FB63685B08C0186168FDF7ECFFF8
:1021400003041B0C0020E7E71C4B1B68DB060BD5C8
:10215000636858081D4B9C4660446168FDF7DCFFCE
:1021600003041B0C0020D7E763685808164B9C46F5
:1021700060446168FDF7D0FF03041B0C0020CBE72F
:10218000FEF7D6FE63685B08C0186168FDF7C4FF00
:1021900003041B0C0020BFE7F369FFEFFFCFFFFF35
:1021A00000480040FFF4FFFF0038014000440040B9
:1021B000004C004000500040603400080010024015
:1021C00000FDFFFFFFFC0F000024F40000093D00AC
:1021D00084340008EFFF000000127A000048E80194
:1021E0006368580880231B029C4660446168FDF7C1
:1021F00093FF03041B0C00208EE7012000238BE7D4
:10220000012091E700208FE701208DE701208BE777
:10221000012089E7012087E7012085E7436ADB0782
:1022200006D5026853682C490B40816A0B43536002
:10223000436A9B0706D50268536828490B40C16A68
:102240000B435360436A5B0706D502685368244911
:102250000B40016B0B435360436A1B0706D50268B2
:10226000536820490B40416B0B435360436ADB06C4
:1022700006D5026893681C490B40816B0B43936041
:10228000436A9B0606D50268936818490B40C16BE8
:102290000B439360436A5B060BD50268536814498D
:1022A0000B40016C0B43536080235B03026C9A422A
:1022B0000AD0436A1B0606D5026853680D490B40D5
:1022C000816C0B4353607047026853680A490B40A6
:1022D000416C0B435360ECE7FFFFFDFFFFFFFEFF88
:1022E000FFFFFBFFFF7FFFFFFFEFFFFFFFDFFFFFB2
:1022F000FFFFEFFFFFFFF7FFFFFF9FFFF0B5C646B1
:1023000000B506000C0017009846069D3368DB698F
:1023100023401B1B5A425341BB421CD16B1CF5D0BE
:10232000FEF7C6F84346C01AA84201D8002DEDD1E9
:10233000326813680A490B40136032689368A3310E
:10234000FF318B43936020237367B36750330022C0
:10235000F254032000E0002004BC9046F0BDC046CB
:102360005FFEFFFFF0B585B004000E0017001D00F2
:10237000436F202B5FD1002960D0002A60D08023DA
:102380005B0182689A4218D07023E35C012B59D01C
:1023900070230122E2540023E36721336367FEF7D1
:1023A00087F803905023E7520233E75280235B0102
:1023B000A2689A4208D0002716E00369002BE3D1F7
:1023C000CB07E1D5012037E02369002B21D000277E
:1023D0000AE03B882268DB05DB0D9362023752225C
:1023E000A35A013B9BB2A3525223E35A9BB2002B48
:1023F00012D00095039B002280212000FFF77EFF72
:10240000002821D1002EE4D0327823689A62013668
:10241000E5E737000026E7E70095039B002240210F
:102420002000FFF76BFF002810D120236367503393
:102430000022E25400E0022005B0F0BD0120FBE7DD
:102440000120F9E70220F7E70320F5E70320F3E78F
:1024500030B583B004000023C367FEF729F80500F8
:1024600023681B681B070CD423681B685B0715D403
:1024700020236367A36750330022E254002003B097
:1024800030BD80210C4B0093030000228903200003
:10249000FFF734FF0028E7D00320F0E78021064B48
:1024A00000932B000022C9032000FFF727FF00281C
:1024B000DED00320E3E7C046FFFFFF0110B5041E96
:1024C0002ED0436F002B21D024236367226813682A
:1024D00001218B4313602000FFF7DEFC012814D09C
:1024E000636A002B18D1226853680E490B40536071
:1024F000226893682A218B439360226813682939E4
:102500000B4313602000FFF7A3FF10BD70330022C0
:10251000C25400F0BDFCD7E72000FFF77FFEE2E7E2
:102520000120F2E7FFB7FFFF7047000010B582B04F
:1025300008220021684600F0A8FD1C481C4B0360DF
:102540000122C263042101644023436400238364A5
:102550008024E40544608360052484630261C360D1
:102560001B340355013403558024E4008462436224
:102570002C2402554161036383614363C361FDF70A
:10258000FFFF00280CD10123009380235B010193FE
:1025900069460648FEF78CF9002804D102B010BD48
:1025A00000F048FBEFE700F045FBF7E7F4020020FE
:1025B0000024014010B586B004001422002101A8B7
:1025C00000F063FD1B4B22689A4201D006B010BD9B
:1025D000194B596B802292000A435A63D96A01222F
:1025E0001143D962DB6A13400093009B01920323DD
:1025F0000293A02001A9C005FEF7BEFB0F48104BB7
:102600000360002343608360C360802202618032E4
:1026100042618022D20082612022C2610362FEF701
:1026200079FA002803D1054BE3649C62CEE700F001
:1026300001FBF8E70024014000100240AC0200203A
:102640000800024000B583B00D4A116B0123194305
:102650001163126B13400193019B0022002109209A
:10266000FEF7EAF90920FEF717FA002200210A20F6
:10267000FEF7E2F90A20FEF70FFA03B000BDC046EC
:1026800000100240BFF34F8F034B044ADA60BFF3E0
:102690004F8FC046FDE7C04600ED00E00400FA059C
:1026A00010B50123094C5B42032209492000FFF7C2
:1026B00059FE2000FFF778FA642206492000FFF750
:1026C000F3F90548FDF7FAFE10BDC04620040020CE
:1026D000CC340008F40100204C04000010B5642242
:1026E0002021024800F0D1FC10BDC046F4010020BA
:1026F00070B50500124E340064340100200000F073
:1027000095FD2000FDF700FD201803220D4900F083
:10271000B3FC2800FDF7F8FC0123023082B20A4D19
:102720005B4221002800FFF71DFE2800FFF73CFA5E
:10273000642231002800FFF7B7F9FFF7CFFF70BD23
:10274000F4010020D03400082004002010B501005E
:10275000034800F073FD431E9841C0B210BDC0464F
:10276000F401002070B5050008000A4900F0F8FAED
:10277000040000F027FB2800FFF7E8FF002805D140
:102780000021200000F0FDFA0028F4D0200000F025
:102790001CFB70BD8526000810B50648FFF7A8FF92
:1027A000FA2189000448FFF7DDFF044B03221A7069
:1027B00010BDC046D4340008FC340008500300208B
:1027C00010B50748FFF794FF0648FFF791FFC821AF
:1027D0000548FFF7C7FF054B04221A7010BDC0461D
:1027E00000350008103500081C3500085003002093
:1027F00010B51448FFF77CFFFA2189001248FFF753
:10280000B1FF1248FFF7A2FF002812D11048FFF7CE
:102810009DFF00280DD10F48FFF798FF00280CD12D
:102820000D48FFF793FF002806D00C4B01221A70C9
:1028300002E00A4B02221A7010BD084B03221A70E4
:10284000FAE7C04620350008FC340008303500089F
:102850003C35000848350008543500085003002076
:1028600000B587B0074B9B6907485843074B9C4608
:1028700060440A2201A900F0E7FB01A8FFF738FF36
:1028800007B000BD74020020102700000F270000D1
:1028900010B56420FDF712FE034B80229A610348B5
:1028A000FDF70CFE10BDC04600080050B80B00003C
:1028B00070B505000C4C64340100200000F0B6FC3B
:1028C0002000FDF721FC20180322084900F0D4FB6A
:1028D0002800FDF719FC0123023082B25B4221007F
:1028E0000348FFF73FFD70BDF4010020D03400081D
:1028F0002004002010B50F4B1B78002B0CD00D4B83
:102900001B78022B0DD00B4B1B78032B0CD0094BE3
:102910001B78042B0BD010BDFFF7C2FEFFF768FF3A
:10292000EDE7FFF739FFEEE7FFF74AFFEFE7FFF7C5
:1029300097FFF0E75003002010B5A023DB0520220D
:102940009A61FFF7ADFE0848FFF7D2FE0748FFF790
:10295000CFFE07490748FFF705FF074B02221A7011
:10296000FFF7C8FF10BDC046603500086C35000891
:1029700030750000783500085003002010B513486A
:10298000FFF7E4FE00280DD11148FFF7DFFE002815
:102990000BD1104B1B78042B0DD0A023DB0520227C
:1029A0009A6210BDFFF7A6FFFBE70A4B00221A70E0
:1029B000FFF7A0FFF5E7A022D205536920214B4085
:1029C00053610548FFF774FFEBE7C04690350008F8
:1029D0009C35000850030020FC34000870B5060048
:1029E0001249134800F02AFC041E19D0114900F0C6
:1029F00025FC051E16D02021200000F009FC00282F
:102A000012D0002E04D00A22002100F0B3FC306066
:102A10002A1B02322A21200000F037FB012070BD62
:102A20000020FCE70020FAE70020F8E70000002083
:102A3000F4010020D034000810B564220249034894
:102A4000FFF732F810BDC046F4010020200400203A
:102A5000F0B589B01422002103A800F016FB224B28
:102A6000D96A04221143D962D96A0A400092009AB5
:102A7000DA6A80273A43DA62DA6A3A400192019AC6
:102A8000DA6A01252A43DA62DB6A2B400293029B51
:102A900000222021A020C005FEF743FA134E002299
:102AA00080213000FEF73DFA80239B010393104BF9
:102AB00004930024059403A93000FEF75DF9202358
:102AC000039304950594069403A9A020C005FEF77E
:102AD00053F9039704950594069403A93000FEF773
:102AE0004BF909B0F0BDC04600100240000800508C
:102AF0000000111010B5034B984200D010BDFFF735
:102B00009BFFFBE72004002030B59FB03822002156
:102B100010A800F0BAFA142200210BA800F0B5FAB0
:102B20002822002101A800F0B0FA12490B68124ACD
:102B30001A4080231B0113430B60022310930125CD
:102B400013950E33149300241A9410A8FEF748FA34
:102B50000F230B930C9571330D930E940F9400215A
:102B60000BA8FEF705FD0195049401A8FEF7FAFDF8
:102B70001FB030BD00700040FFE7FFFF70B5FDF7EC
:102B80007BFCFFF7C1FFFFF763FF00F023F900F0C4
:102B900061F9FFF757FDFFF7C9FCA023DB052022F1
:102BA0009A61FFF775FEFA201D49C00000F0D8F8C1
:102BB00006001C491C4800F0D3F804000021C8207E
:102BC00000F0CEF8050000F0B5F814E0200000F0A9
:102BD000F1F80021280000F0D4F8002816D10021D7
:102BE000200000F0CEF80021300000F0CAF8FA20F2
:102BF0008000FDF763FC802189010C48FEF78AF90B
:102C00000028E3D1200000F0DDF8E2E70848FFF7F4
:102C1000E5FE0028E3D00120FDF750FCDFE7C046C9
:102C20007D29000839290008881300000008005099
:102C30009002002070470000054B5A6B01210A43A7
:102C40005A63996B802252050A439A637047C046C3
:102C5000001002407047FEE77047704710B5FDF75F
:102C60001FFC10BD10B50248FEF726F810BDC04687
:102C7000AC02002010B50348FEF71EF80248FEF72C
:102C80001BF810BD90030020D803002010B50248A7
:102C9000FFF756F810BDC0462004002010B5030011
:102CA0000B4A1268002A08D0094A1068C3186A46FD
:102CB000934206D8064A136010BD054A05491160C3
:102CC000F2E700F07FF90C23036001204042F3E7B4
:102CD00094020020A8040020104B196880225200A2
:102CE0000A431A60DA680E490A40DA601A680D4928
:102CF0000A401A609A6801218A439A601A680A4950
:102D00000A401A60DA6809490A40DA6000221A614A
:102D1000074B802212059A607047C046001002409F
:102D20000C40FF88F6FFF6FEFFFFFBFFFFFF02FFF0
:102D300000ED00E010B5074C00212000FDF728FE53
:102D40000548FEF769FE012204492000FDF70CFD4D
:102D500010BDC046F4020020540300209C02002055
:102D600070B506000D00102000F072F9041E06D0A8
:102D7000002303704660C560FDF79AFBA060200049
:102D800070BD70B504000D00FDF792FBA368C01A7A
:102D9000636898420BD32678002E09D0FDF788FB94
:102DA000A060E368002B03D02800984700E00026CD
:102DB000300070BD10B50400FDF77AFBA060002361
:102DC000237010BD01230370704710B500F04AF95D
:102DD00010BD000000B583B008220021684600F055
:102DE00054F91048104B0360104B4360002383607C
:102DF0000F4AC2604361FEF7F5FD00280BD1202386
:102E000000930023019369460648FEF717FE002849
:102E100004D103B000BDFFF70DFFF0E7FFF70AFF95
:102E2000F7E7C04654030020001000403F1F000099
:102E3000E70300000268054B9A4200D07047044A3D
:102E4000936B10210B439363F8E7C04600100040DA
:102E50000010024010B50C480C4B0360E1235B02EC
:102E6000436000238360C36003610C22426183617D
:102E7000C36103624362FFF721FB002800D110BD4C
:102E8000FFF7D8FEFBE7C0462004002000380140D1
:102E900030B587B004001422002101A800F0F5F835
:102EA0002D4B22689A4201D007B030BD2B4B596B95
:102EB0008022D2010A435A63D96A01221143D9629E
:102EC000DB6A1A400092009BC023DB0001930223BF
:102ED00002930325049502330593A02001A9C005A0
:102EE000FDF74AFF1E481F4B0360456000238360C7
:102EF000C3608022026143618361C3610362FDF7A5
:102F000009FE002821D1164BE3669C621648174B38
:102F10000360032343600D3383600023C36080227A
:102F2000026143618361C3610362FDF7F3FD002821
:102F30000ED10D4BA3669C62002200211B20FDF7E1
:102F40007BFD1B20FDF7A8FDAEE7FFF773FEDAE778
:102F5000FFF770FEEDE7C046003801400010024068
:102F6000D803002030000240900300201C000240E3
:102F70000D488546002103E00C4B5B58435004315B
:102F80000B480C4B42189A42F6D30B4A02E000233E
:102F900013600432094B9A42F9D3FFF79DFE00F00B
:102FA00017F8FFF7EBFDFEE700500020E4360008BD
:102FB00000000020D8010020D8010020A404002037
:102FC000FEE70000014B18687047C046080000206B
:102FD00070B500260C4D0D4C641BA410A64209D1FF
:102FE000002600F031FA0A4D0A4C641BA410A642D8
:102FF00005D170BDB300EB5898470136EEE7B3003A
:10300000EB5898470136F2E7DC360008DC3600085A
:10301000DC360008E0360008931E10B50C00222BA9
:1030200004D900231C000B70200010BD0A2A09D10E
:10303000002807DA2D230B7001214042611800F0AF
:10304000ADF9F1E70021F9E710B5FFF7E5FF10BD95
:1030500010B5034B0100186800F06AF810BDC046B7
:103060000800002010B5034B0100186800F016F8A6
:1030700010BDC04608000020002310B59A4200D1C0
:1030800010BDCC5CC4540133F8E70300121893421E
:1030900000D1704719700133F9E7000070B50500E1
:1030A000002910D00C1F2368002B00DAE418280038
:1030B00000F0BBF91D4A1368002B05D16360146052
:1030C000280000F0B3F970BDA34209D92168601847
:1030D0008342F3D118685B6841182160EEE7130062
:1030E0005A68002A01D0A242F9D919685818A0429A
:1030F0000BD120680918581819608242E0D1106875
:103100005268411819605A60DAE7A04202D90C23CC
:103110002B60D5E721686018824203D1106852689D
:103120004118216062605C60CAE7C046A0020020CE
:10313000032370B5CD1C9D43083506000C2D1ED20F
:103140000C25A9421DD8300000F06FF9254A1468FB
:103150002100002919D1244C2368002B03D1300011
:1031600000F044F820602900300000F03FF8431CD4
:103170002BD10C233000336000F058F903E0002D10
:10318000DFDA0C233360002070BD0B685B1B19D4A1
:103190000B2B03D90B60CC18256003E04B688C42E5
:1031A0000DD11360300000F041F9200007220B30F0
:1031B000231D9043C31AE7D05A42E250E4E763600C
:1031C0000C00EFE70C004968C3E70323C41C9C43D1
:1031D000A042E1D0211A300000F008F8431CDBD1F6
:1031E000C7E7C046A0020020A4020020002370B55B
:1031F000064C050008002360FFF750FD431C03D177
:103200002368002B00D02B6070BDC046A0040020B6
:10321000C9B20378002B04D08B4200D17047013033
:10322000F7E74B42594149420840F7E703000A7863
:1032300001311A700133002AF9D1704710B50378B3
:10324000002B0FD10B785A4253415B42184010BDFE
:103250000023CA5C002AFAD0C45C944201D1013335
:10326000F7E701300378002BF2D11800EFE7F0B553
:103270001F000E0085B00390019102920A983478E5
:1032800000F0BEF8082200194378751C134038D1AD
:103290002D2C38D17478B51C01330093002F65D0E4
:1032A000102F09D1302C07D120222B789343582B93
:1032B00057D110276C780235012039004042FCF7C5
:1032C0002BFF0600012039004042FCF7ABFF002332
:1032D00001228C461800524221003039092917D8A2
:1032E0000C00A74222DD002B1EDB1300864205D313
:1032F00001D1A44502DB0123784320182C78013545
:10330000EAE72E00BAE72B2CC7D1B51C7478C4E7C6
:1033100021004139192901D8373CE2E72100613900
:10332000192903D8573CDCE71300E7E7002B09DA3B
:1033300022230120039A40421360029B002B0AD1F2
:1033400005B0F0BD009A002A00D04042029A002A3F
:10335000F6D0002B01D06B1E0193029B019A1A60DC
:10336000EEE73024002FA7D10827A5E7302C9BD00B
:103370000A27A1E737B51300064A05001068046A5A
:10338000002C00D1044C0A0000942900FFF76FFFC5
:103390003EBDC046080000206C000020F0B51700BC
:1033A0008DB0252206000D0002A81449FFF764FE27
:1033B00002AABB1E00240192222B05D92C702500E5
:1033C00028000DB0F0BD140030003900FCF72AFFD2
:1033D00084460198621CAB18415C5E1E31706646E3
:1033E000002EF0D11E702B005A1B9442E8DD1A7893
:1033F000295D19702A550133013CF5E7A435000811
:10340000EC300068704782B0002900D101A9101E7D
:1034100006D0002B06D013780B601078431E98411D
:1034200002B0704702204042FAE7704770470B1E17
:1034300004D0FF2A04D98A2303608B3B180070470D
:103440000A700123FAE70000F8B5C046F8BC08BCD2
:103450009E467047F8B5C046F8BC08BC9E4670470B
:10346000022100083021000848210008FA21000844
:1034700080210008FA210008FA210008FA2100083A
:10348000E02100083E200008762000089020000877
:10349000FC200008C8200008FC200008FC200008D0
:1034A000FC200008E2200008030406080C10182085
:1034B00030000000000000000000000001020304D2
:1034C0000607080900000000010203042B2B2B0053
:1034D0000D0A000041542B43495053544152543D6E
:1034E00022544350222C223139322E3136382E309C
:1034F0002E313433222C3133333700004F4B000050
:1035000041542B4349504D4F44453D31000000008C
:1035100041542B43495053454E4400003E000000A7
:1035200041542B434950535441545553000000001B
:103530005354415455533A320000000053544154FF
:1035400055533A34000000005354415455533A3314
:10355000000000005354415455533A350000000018
:1035600041542B43574D4F44453D310041542B5757
:1035700050533D3100000000636F6E6E65637469E7
:103580006E67000041542B524553544F5245000082
:10359000436F6E6E65637465640000004552524F60
:1035A00052000000303132333435363738396162F9
:1035B000636465666768696A6B6C6D6E6F70717263
:1035C000737475767778797A004300504F53495871
:1035D000002E000020202020202020202028282825
:1035E00028282020202020202020202020202020CB
:1035F0002020202088101010101010101010101013
:103600001010101004040404040404040404101032
:1036100010101010104141414141410101010101CF
:10362000010101010101010101010101010101107B
:1036300010101010104242424242420202020202A4
:10364000020202020202020202020202020202104C
:10365000101010200000000000000000000000001A
:10366000000000000000000000000000000000005A
:10367000000000000000000000000000000000004A
:10368000000000000000000000000000000000003A
:10369000000000000000000000000000000000002A
:1036A000000000000000000000000000000000001A
:1036B000000000000000000000000000000000000A
:1036C00000000000000000000000000000000000FA
:0436D00000000000F6
:0836D4009CCBFF7F0100000008
:0436DC00E9000008F9
:0436E000C10000081D
:1036E40024000000000020000C0000200000000066
:1036F40000000000000000000000000000000000C6
:1037040000000000000000000000000000000000B5
:1037140000000000000000000000000000000000A5
:103724000000000000000000000000000000000095
:103734000000000000000000000000000000000085
:103744000000000000000000000000004300000032
:103754000000000000000000000000000000000065
:103764000000000000000000000000004300000012
:103774000000000000000000000000000000000045
:1037840000000000000000000000000043000000F2
:103794000000000000000000000000000000000025
:1037A40000000000000000000000000043000000D2
:1037B4000000000000000000000000000000000005
:1037C40000000000000000000000000043000000B2
:1037D40000000000000000000000000000000000E5
:1037E4000000000000000000000000004300000092
:1037F40000000000000000000000000000000000C5
:103804000000000000000000000000004300000071
:1038140000000000000000000000000000000000A4
:103824000000000000000000000000002F34000829
:103834000734000800000000D3350008D135000823
:10384400D2350008D2350008D2350008D235000838
:10385400D2350008D2350008D2350008D235000828
:10386400D2350008FFFFFFFFFFFFFFFFFFFFFFFF51
:10387400FFFF0000010041534349490000000000DC
:103884000000000000000000000000000000000034
:1038940000000000000041534349490000000000BB
:1038A4000000000000000000000000000000000014
:0838B40000000000000000000C
:0400000508002F714F
:00000001FF
