:020000040800F2
:100000000050002091260008D1230008D3230008C7
:1000100000000000000000000000000000000000E0
:10002000000000000000000000000000D5230008D0
:100030000000000000000000D7230008D9230008BA
:10004000E1260008E1260008E1260008E126000874
:10005000E1260008E1260008E1260008E126000864
:10006000E1260008E1260008E1230008E126000857
:10007000E1260008E1260008E1260008E126000844
:10008000E1260008E1260008E12600080000000043
:10009000E1260008E1260008E1260008E126000824
:1000A000E1260008E1260008E1260008F9230008FF
:1000B000E1260008E1260008E1260008E126000804
:1000C00010B5064C2378002B07D1054B002B02D02E
:1000D000044800E000BF0123237010BD6800002029
:1000E0000000000034290008044B10B5002B03D099
:1000F0000349044800E000BF10BDC04600000000F6
:100100006C000020342900080023C25C0133002A5F
:10011000FBD1581E70470000002243088B4274D365
:1001200003098B425FD3030A8B4244D3030B8B42F8
:1001300028D3030C8B420DD3FF22090212BA030C01
:100140008B4202D31212090265D0030B8B4219D3E2
:1001500000E0090AC30B8B4201D3CB03C01A524102
:10016000830B8B4201D38B03C01A5241430B8B424A
:1001700001D34B03C01A5241030B8B4201D30B0333
:10018000C01A5241C30A8B4201D3CB02C01A52415A
:10019000830A8B4201D38B02C01A5241430A8B421D
:1001A00001D34B02C01A5241030A8B4201D30B0206
:1001B000C01A5241CDD2C3098B4201D3CB01C01A20
:1001C000524183098B4201D38B01C01A524143092A
:1001D0008B4201D34B01C01A524103098B4201D318
:1001E0000B01C01A5241C3088B4201D3CB00C01A85
:1001F000524183088B4201D38B00C01A52414308FD
:100200008B4201D34B00C01A5241411A00D2014621
:10021000524110467047FFE701B5002000F006F894
:1002200002BDC0460029F7D076E770477047C04648
:10023000002B11D1002A0FD1002900D1002802D0B3
:100240000021C943081C07B4024802A140180290CB
:1002500003BDC046D9FFFFFF03B4684601B502984D
:1002600000F006F8019B9E4602B00CBC7047C046E9
:10027000F0B54F464646D646C0B5040082B00D00E4
:10028000914698468B422FD82CD04146484600F0E4
:10029000B1F829000600200000F0ACF8331A9C46A3
:1002A000203B9A4600D576E04B46524693401F00CD
:1002B0004B46624693401E00AF4228D825D0534695
:1002C000A41BBD41002B00DA7BE00022002300923A
:1002D00001930123524693400193012362469340C8
:1002E000009318E08242D0D90022002300920193AB
:1002F0000A9B002B01D01C605D600098019902B040
:100300001CBC90469946A246F0BDA342D7D9002214
:100310000023009201936346002BE9D0FB07984627
:10032000414672080A437B0866460EE0AB4201D1A3
:10033000A2420CD8A41A9D41012024196D4100212C
:10034000013E24184D41002E06D0AB42EED9013EAD
:1003500024196D41002EF8D10098019953460019D7
:100360006941002B23DB2B005246D3402A00644610
:10037000E2401C0053461500002B2DDB260057469B
:10038000BE40330026006746BE403200801A9941C5
:1003900000900191ACE7624620239B1A4A46DA405E
:1003A0006146130042468A4017001F4380E76246B9
:1003B00020239B1A2A0066469A402300F3401343E9
:1003C000D4E76246202300219B1A0022009101926B
:1003D0000122DA40019280E72023624626009B1A20
:1003E000DE402F00B0466646B74046463B003343EA
:1003F000C8E7C04610B5002903D100F007F8203047
:1004000002E0081C00F002F810BDC0461C210123C8
:100410001B04984201D3000C10391B0A984201D3E7
:10042000000A08391B09984201D30009043902A2C5
:10043000105C40187047C04604030202010101012C
:10044000000000000000000010B50400094B18680F
:10045000FA218900FFF760FE00F078F8002801D04B
:10046000012010BD013000222100404200F034F88C
:100470000020F6E70000002010B5084A136840216C
:100480000B4313600020FFF7DFFF041E02D001249E
:10049000200010BD01F08EFFFAE7C04600200240A8
:1004A000024A1368013313607047C04630010020D0
:1004B000014B18687047C0463001002070B5040039
:1004C000FFF7F6FF0500631C00D00134FFF7F0FFD3
:1004D000401BA042FAD370BD70B5002811DB840820
:1004E000134DC034A400625903231840C000FC33EC
:1004F0001E008640B24389010B4083401343635181
:1005000070BDC0B20F220240083A92080632920033
:10051000084BD3185D6803242040C000FF2214005C
:100520008440A54389010A4082402A435A60E7E794
:1005300000E100E000ED00E01F2318401E3B834077
:10054000014A13607047C04600E100E001380A4BE1
:1005500098420FD8094A50600948036A1B021B0AD7
:10056000C02109060B430362002393600733136025
:10057000002070470120FCE7FFFFFF0010E000E0D3
:1005800000ED00E070B5041E3DD005681F4BE81873
:100590001421FFF7C1FD800060641D4B23642523F7
:1005A0000222E2542B681B4A1A40A368E1680B43FD
:1005B00021690B4361690B43A1690B43E1690B435B
:1005C000216A0B4313432B608023DB01A2689A420C
:1005D00010D0114B19681C22656C15400F20A840E3
:1005E000814319601968606C0240606890400200A5
:1005F0000A431A600023E36325220121A154013A32
:10060000A354002070BD0120FCE7C046F8FFFDBFE9
:10061000000002400F80FFFFA800024010B5252314
:10062000C35C022B06D00423C36320330022C254D0
:10063000012010BD026813680E218B43136001680E
:100640000A6801239A430A601C22416C0A40016C2B
:100650001C0094404C602522835423330022C25452
:100660000020E6E710B52523C35C022B03D004234A
:10067000C363012010BD026813680E218B43136011
:1006800001680A6801239A430A601C22416C0A40EF
:10069000016C1C0094404C602522835423330022BB
:1006A000C254836B002B02D098470020E2E7002061
:1006B000E0E770B5036C1968046825681C23426C78
:1006C000134004229A40114214D06A0712D52368BD
:1006D0009B0603D423680422934323601C22436CAB
:1006E0001A40016C042393404B60036B002B00D035
:1006F000984770BD02229A4011421AD0AA0718D515
:1007000023689B0606D423680A229343236025238B
:10071000093AC2541C22436C1A40016C02239340D4
:100720004B6024230022C254C36A002BE1D09847B7
:10073000DFE708229A401142DBD02B07D9D5236886
:100740000E22934323600E32436C1A40016C012346
:100750001C0094404C60C363252283542333002241
:10076000C254436B002BC4D09847C2E7C06B70479C
:10077000F0B5C64600B5002338E0052600E00026A7
:10078000AE4035003D430234A400584EA551584CAC
:1007900025684246D4432E0026404A68D20302D53B
:1007A000424615432E00524D2E606D682E002640A5
:1007B0004A68920302D5424615432E004C4D6E60A6
:1007C000AD682E0026404A68D20202D54246154343
:1007D0002E00474DAE60ED682C404A68920202D56B
:1007E00042462A431400424AD46001330A68140086
:1007F000DC4077D001249C4022409046F5D04D68E3
:10080000022D01D0122D0ED1DD080835AD002F5874
:1008100007261E40B6000F22B24097430A69B24035
:1008200016003E432E504D686E1E012E03D9112D29
:1008300001D0122D12D185685F000326BE40B5435A
:100840002E00CD68BD40354385604568A5434A68A4
:100850001609012434409C402C43446007685E0024
:1008600003242500B540ED432F404A681440B440AE
:100870003C430460C46825408C68B4402C43C46089
:100880004A68D200B1D51B4D6C6B012634436C63B2
:100890009C08A51CAD00154EAF5903261E40B5009F
:1008A0000F26AE40B743A026F605B04200D166E75A
:1008B000114EB0420ED0114EB0420DD0104EB0428B
:1008C0000CD0104EB0420BD00F4EB04200D154E7C6
:1008D000062655E7012653E7022651E703264FE790
:1008E00004264DE704BC9046F0BDC0460000014020
:1008F00000040140001002400004005000080050B5
:10090000000C005000100050001C005003690B4206
:1009100001D1002070470120FCE7002A01D181624B
:1009200070478161FCE7000010B5264BD9680C23A5
:100930000B40082B42D00C2B11D0042B09D0214B9B
:100940005A68520B0723134001338020000298405D
:1009500010BD1C4B1B68DB0632D51B48F8E78A0C20
:100960000F231340194AD05C890D03221140013135
:10097000144BDB68DB030DD4124B1B68DB0613D56D
:100980004201121A93019B1ADB001B181802FFF791
:10099000C3FBDDE74201121A93019B1ADB001B180F
:1009A0005802FFF7B9FBD3E74201121A93019B1AD1
:1009B000DB001B189802FFF7AFFBC9E70448C7E745
:1009C0000448C5E70010024000093D0094290008D2
:1009D00000127A000024F400F0B583B0041E00D1A8
:1009E0009FE2C44BDA680C251540DA68802676024F
:1009F00016400368DB0736D5082D2CD00C2D28D0E7
:100A0000636880225202934255D0A022D2029342C0
:100A100058D0B84B1A68B8490A401A601A68802141
:100A200049020A400192019A1A68B4490A401A60C0
:100A30006368002B52D0FFF73BFD0700AD4B1B68EE
:100A40009B0310D4FFF734FDC01B6428F6D90320A4
:100A500068E2002ED4D0A74B1B689B0303D56368C4
:100A6000002B00D160E223689B076CD5E3689A06EF
:100A700005D5A048026820210A4302608B43042D5B
:100A80003CD00C2D38D0002B00D1AEE099490A683B
:100A90000920824313430B60FFF70AFD0600954BC4
:100AA0001B685B0700D597E0FFF702FD801B02285B
:100AB000F5D9032036E28F4A116880235B020B438D
:100AC0001360B5E78B4B19688022D2020A431A6083
:100AD0001968802252020A431A60A9E7FFF7E8FC6E
:100AE0000700844B1B689B03BDD5FFF7E1FCC01BCF
:100AF0006428F6D9032015E2002EC4D17D4A12687D
:100B0000520702D5002B00D110E27A4E72687C4960
:100B10000A40216909020A437260326809218A4346
:100B200013433360FFF700FFF26812090F231340ED
:100B3000744AD35CD840744B18600020FFF784FCE3
:100B4000002800D0EEE12368DB062CD5002D5FD114
:100B5000684B1B689B0503D5E369002B00D1E7E1D7
:100B6000644A536869490B40616A0B435360536898
:100B70001B021B0A216A09060B435360636A590B67
:100B8000013180231B028B40D16809090F220A40E2
:100B90005C498A5CD3405C4A13600020FFF754FC38
:100BA000002800D0BEE123681B077DD56369002BB8
:100BB00067D0504A136D01210B431365FFF778FC92
:100BC00006004C4B1B6D9B076ED4FFF771FC801B1E
:100BD0000228F6D90320A5E146494B68484A13404C
:100BE0002269120213434B60ADE7424A13680121A8
:100BF0008B431360FFF75CFC06003E4B1B685B07F2
:100C0000A1D5FFF755FC801B0228F6D9032089E106
:100C1000E369002B22D0374A116880235B000B4325
:100C20001360FFF745FC0600324B1B689B0506D49A
:100C3000FFF73EFC801B0228F6D9032072E12D4A03
:100C4000536832490B40616A0B43536053681B027F
:100C50001B0A216A09060B435360A4E7254A13685F
:100C60002B490B401360FFF723FC0600214B1B6848
:100C70009B0598D5FFF71CFC801B0228F6D90320A2
:100C800050E11C4A136D01218B431365FFF710FCE3
:100C90000600184B1B6D9B0706D5FFF709FC801B50
:100CA0000228F6D903203DE123685B0700D48CE0DD
:100CB000104B9B6BDB001BD40E4A916B80235B05B2
:100CC0000B4393630126134B1B68DB0526D5A368F2
:100CD00080225200934235D0002B4BD1054B1A6D28
:100CE0000B490A401A651A6D0B490A401A652FE034
:100CF0000026E8E700100240FFFFFEFFFFFFFBFFBA
:100D0000FFE0FFFFA029000800000020FF1FFFFFF9
:100D1000FFFEFFFF00700040FFFBFFFF884A1168E5
:100D200080235B000B431360FFF7C2FB0700844B7B
:100D30001B68DB05CBD4FFF7BBFBC01B6428F6D9CF
:100D40000320EFE07F4A116D80235B000B431365A6
:100D5000A368002B28D0FFF7ABFB0700794B1B6D76
:100D60009B0530D4FFF7A4FBC01B774B9842F5D905
:100D70000320D7E0A022D200934209D0714B1A6D14
:100D800072490A401A651A6D71490A401A65DFE70F
:100D90006C4B196D013AFF3A0A431A65196D8022AE
:100DA00052000A431A65D3E7FFF782FB0700654B41
:100DB0001B6D9B0507D5FFF77BFBC01B624B984261
:100DC000F5D90320AEE0012E21D023689B063CD547
:100DD000A369002B21D05B4B9968012001439960E6
:100DE0005A6B02435A635B4A116A80239B010B438F
:100DF0001362FFF75DFB0600524B9B689B0724D4F0
:100E0000FFF756FB801B0228F6D903208AE04D4AE3
:100E1000936B51490B409363D7E74A4A936801218A
:100E20008B4393604B4A136A4C490B401362FFF7A4
:100E30003FFB0600434B9B689B0706D5FFF738FB3B
:100E4000801B0228F6D903206CE0A36A002B00D196
:100E500070E00C2D49D0022B12D03A4A1368404959
:100E60000B401360FFF724FB0400364B1B689B010B
:100E700039D5FFF71DFB001B0228F6D9032051E0EE
:100E8000304A136836490B401360FFF711FB050029
:100E90002C4B1B689B0106D5FFF70AFB401B022861
:100EA000F6D903203EE02749CB682E4A1340E26A78
:100EB000206B0243606B02431343CB600A688023BC
:100EC0005B0413430B60FFF7F3FA04001D4B1B6830
:100ED0009B0106D4FFF7ECFA001B0228F6D9032089
:100EE00020E000201EE000201CE0012B24D0154B48
:100EF000DA6880235B021340E16A8B4201D0012053
:100F000010E0F0239B031340216B8B4201D00120A2
:100F100008E0C0231B041A40636B9A420ED00120E4
:100F200000E0012003B0F0BD0120FBE70120F9E75C
:100F30000120F7E70020F5E70120F3E70020F1E7C3
:100F4000007000400010024088130000FFFEFFFF09
:100F5000FFFBFFFF00000140FFFFFFEFFFDFFFFF90
:100F6000FFFFFFFEFFFF02FF70B504000D00002829
:100F700000D1BAE05F4B1A68012313408B420BD2B9
:100F80005C490B68012293432B430B600B681A40AA
:100F9000AA4201D00120A9E023689B0706D5564A42
:100FA000D368F0218B43A1680B43D3602368DB0730
:100FB00064D56368022B09D0032B29D0012B2DD0D7
:100FC0004D4A1268920506D401208FE04A4A126801
:100FD000920300D48BE04849CA680320824313433C
:100FE000CB60FFF765FA06006368022B1CD0032B69
:100FF00028D0012B34D0404BDB680C221A423DD064
:10100000FFF756FA801B3D4B9842F4D903206DE060
:10101000394A12689201DED4012067E0364A12682C
:101020005207D8D4012061E0334BDA680C23134017
:10103000082B23D0FFF73CFA801B304B9842F3D9A2
:10104000032053E02C4BDA680C2313400C2B15D0F3
:10105000FFF72EFA801B294B9842F3D9032045E075
:10106000254BDA680C231340042B07D0FFF720FA36
:10107000801B224B9842F3D9032037E01D4B1A689E
:1010800001231340AB420BD91A490B680122934349
:101090002B430B600B681A40AA4201D0012025E0C7
:1010A00023685B0706D5144AD36815490B40E168ED
:1010B0000B43D36023681B0707D50F49CB68114A40
:1010C00013402269D2001343CB60FFF72DFC0A4B7B
:1010D000DA6812090F2313400B4AD35CD8400B4B3C
:1010E00018600020FFF7B0F900E0012070BD01207A
:1010F000FCE7C046002002400010024088130000B8
:10110000FFF8FFFFFFC7FFFFA02900080000002035
:10111000014B18687047C0460000002010B5FFF76B
:10112000F7FF044BDA68120A07231340024AD35C24
:10113000D84010BD00100240B029000810B5FFF7DC
:10114000E7FF044BDA68D20A07231340024AD35C54
:10115000D84010BD00100240B029000870B504004E
:1011600082231B0102681A425AD0754B9B6BDB002D
:1011700000D59DE0724A916B80235B050B4393631E
:101180000125704B1B68DB0500D493E06C4B1A689B
:10119000C0239B031A4061680B40934200D19EE03C
:1011A000C0239B020A001A409A4200D19FE0644B80
:1011B0001B6DC022920213401FD01140994202D0F1
:1011C0002268920608D4C0229202A1680A409A427C
:1011D00013D023681B0510D5594B186D5A4A02408D
:1011E0001E6D8021090331431965196D574E314039
:1011F00019651A65C30500D580E06368C0229202B4
:1012000019001140914200D188E04D490B6DC02278
:1012100092026068024013430B65012D00D187E004
:101220002368DB0706D5464AD36C03218B43E1686C
:101230000B43D36423689B0706D5414AD36C0C212A
:101240008B4321690B43D36423685B0706D53C4A73
:10125000D36C3F490B4061690B43D36423681B0780
:1012600006D5374AD36C3B490B40A1690B43D36485
:101270002368DB0506D5324AD36C33490B40E1695C
:101280000B43D36423685B0606D52D4AD36C3249E1
:101290000B40616A0B43D36423681B064ED5284A72
:1012A000D36C2E490B40216A0B43D364002070BDE0
:1012B000002566E7234A116880235B000B43136017
:1012C000FFF7F6F806001F4B1B68DB0500D55DE74E
:1012D000FFF7EEF8801B6428F5D90320E7E7C02369
:1012E0009B03A0680340934200D059E75FE7144B8B
:1012F0001B689B0300D45AE70120D8E7FFF7D8F812
:1013000006000F4B1B6D9B0500D576E7FFF7D0F865
:10131000801B134B9842F4D90320C8E708490A6898
:1013200010480240C0208003034013430B606CE769
:101330000A008B6B0C490B40936371E70020B6E702
:101340000010024000700040FFFFFCFFFFFFF7FFAE
:10135000FFF3FFFFFFCFFFFFFFFFFFFBFFFFF3FFE9
:1013600088130000FFFFCFFFFFFFFFEF036880221D
:10137000D205904208D0154A904205D0144A9042B6
:1013800002D0144A904203D1702293434A68134317
:101390008022D205904208D00C4A904205D00C4AD7
:1013A000904202D00B4A904203D10B4A1340CA68C4
:1013B0001343802293430A69134303608B68C3621B
:1013C0000B688362012343617047C04600040040FC
:1013D0000008014000140140FFFCFFFF70B5041E2F
:1013E00014D03923C35C002B0AD03925022363555E
:1013F000211D2068FFF7BAFF01236355002070BD4F
:1014000038330022C25401F0A5F8EEE70120F6E7D8
:10141000F0B53823C35C012B1BD0382601239C4632
:10142000835539270133C355026854689368702582
:10143000AC430D682C438025AB431D004B682B4308
:101440005460026893606346C355002383550020AF
:10145000F0BD0220FCE700000268136806490B405B
:101460001360026893682331FF318B43936020231C
:101470008367002303667047DFFEFFFF30B5836F8D
:10148000202B6DD1002900D16CE0002A00D16BE047
:10149000836880246401A3421AD07024045D012C67
:1014A00064D070240125055541655821425202310E
:1014B0004252002202668022520193420FD0002B3A
:1014C0001CD10369002B15D15C33FF22C2521CE0F2
:1014D0000469002CE1D1CC07DFD5012041E003698C
:1014E000002B03D15C33224AC2520EE05C23FF2260
:1014F000C2520AE05C237F22C25206E080225205DB
:1015000093421CD05C230022C2520023C3672233C3
:1015100083670268936801210B43936080235B011A
:1015200082689A4216D0134B036670230022C2547D
:1015300002681168B0330B431360002011E00369A7
:10154000002B03D15C337F22C252DEE75C233F22B3
:10155000C252DAE70369002BE5D1074B0366E4E7E3
:10156000022030BD0120FCE70120FAE70220F8E765
:10157000FF01000049160008AD16000810B5040070
:101580000268136828490B40136002689368E331CE
:10159000FF318B43936003689A6812060DD59A68F1
:1015A0007F318A439A60836E002B06D000229A63B3
:1015B000806EFFF733F8002824D123689A6852061A
:1015C0000DD59A6840218A439A60E36E002B06D0BD
:1015D00000229A63E06EFFF721F800281BD1002358
:1015E0005222A3520832A35222680F2111622168AD
:1015F0008A69082002438A6120226267A267E36742
:10160000002010BDA06EFFF7B1F82028D5D110231F
:10161000E3671D38F5E7E06EFFF7A8F82028DED174
:101620001023E3671D38ECE71FFEFFFF704710B57E
:101630000268136840218B43136020234367002313
:101640004366FFF7F3FF10BD10B55C23C35A826FEA
:10165000222A05D00268936908210B43936110BDCB
:101660000268526ADBB21340426D1370436D01335E
:1016700043655A22835A013B9BB28352835A9BB2E1
:10168000002BECD10268136807490B401360026815
:1016900093682331FF318B439360202383670023BA
:1016A000036600F00FFEDAE7DFFEFFFF10B55C23F4
:1016B000C25A836F222B05D00268936908210B431D
:1016C000936110BD03685B6A1340426D1380436DE4
:1016D000023343655A22835A013B9BB28352835A99
:1016E0009BB2002BEDD10268136808490B401360D0
:1016F000026893682331FF318B4393602023836713
:101700000023036600F0DEFDDBE7C046DFFEFFFFDF
:101710007047000070B504000168CB6908688D68E7
:101720000F221A400AD19E0608D5860606D5236EDA
:10173000002B00D189E02000984786E0002A6BD07A
:1017400001222A4003D190267600304264D0DD0782
:1017500006D5C50504D501250D62E16F2943E16772
:10176000990708D5002A06D0216802250D62E16F8D
:1017700002352943E167590708D5002A06D02168B8
:1017800004250D62E16F023D2943E167190709D580
:10179000810601D4002A05D0226808211162E26F77
:1017A0000A43E267E26F002A4FD09B0606D5830604
:1017B00004D5236E002B01D020009847E26F2368E8
:1017C0009B685B0601D4130720D52000FFF744FE79
:1017D00023689A68520615D59A6840218A439A6010
:1017E000E36E002B0AD01B4A9A63E06EFEF73AFFC5
:1017F00000282AD0E06E836B984726E02000FFF790
:1018000087FF22E02000FFF783FF1EE02000FFF7A4
:101810007FFF0023E36718E0DA0201D56A0209D4EA
:101820001A060ED502060CD5636E002B0DD02000D3
:1018300098470AE080235B030B62200000F05EFB08
:1018400003E05B0601D5430600D470BD2000FFF71E
:10185000EEFEFAE75918000810B5806A00235A22F4
:101860008352083A8352FFF753FF10BDD0B50400EE
:10187000016883680269134342691343C2691343D1
:101880000A68BA48024013430B6022685368B8499B
:101890000B40E1680B435360A1692268B54B9A4243
:1018A00001D0236A19439368B34803400B43936004
:1018B0002368B24A93421CD0B14A93422DD0B14A18
:1018C00093425FD0B04A93425ED0AA4A934239D045
:1018D0001022A8498B425BD080231B02E169994208
:1018E00000D190E0082A00D971E19200A74B9B58E3
:1018F0009F46A74AD16C03220A40012A09D0002A38
:1019000005D0022A3AD0032A05D01022E1E70122AD
:10191000DFE70422DDE70822DBE79D4AD16C0C22D9
:101920000A40042A0AD005D9082A29D00C2A07D14E
:101930000822CEE7002A03D10022CAE70422C8E722
:101940001022C6E7924AD26CC02109010A408021C8
:10195000C9008A420ED009D9802109018A4215D0D6
:10196000C02109018A4207D10822B2E7002A03D127
:101970000022AEE70422ACE71022AAE70222A8E781
:101980000222A6E70022A4E70022A2E70222A0E7A3
:10199000022A2DD007D9042A30D0082A00D019E114
:1019A0008020000207E0002A00D013E1FFF7B6FB19
:1019B000002800D110E1626853009B18834200D9CF
:1019C0000CE11303834200D20AE1070E060250081D
:1019D0000021801979410023FEF72AFC6D4BC218C3
:1019E0006D4B9A4200D9FDE02368D860002085E065
:1019F000674B1B68DB0604D46848DCE7FEF794FFFE
:101A0000D6E76748D7E7082A62D89200654B9B580B
:101A10009F46FFF783FB400063685B08C01861685E
:101A2000FEF77AFB03041B0C00205F491A00103AF2
:101A30008A4200D9D8E00F22190091435B08083A86
:101A400013400B432268D36058E0FFF777FB400058
:101A500063685B08C0186168FEF75EFB03041B0C3B
:101A60000020E2E74A4B1B68DB060BD56368580889
:101A70004E4B9C4660446168FEF74EFB03041B0C12
:101A80000020D2E763685808494B9C46604461686F
:101A9000FEF742FB03041B0C0020C6E7FEF744FFE1
:101AA000400063685B08C0186168FEF735FB0304FB
:101AB0001B0C0020B9E76368580880235B029C4632
:101AC00060446168FEF728FB03041B0C0020ACE7B0
:101AD00001200023A9E7FFF721FB63685B08C0181A
:101AE0006168FEF719FB03041B0C00202E491A0045
:101AF000103A8A4200D979E02268D3600023236635
:101B00006366D0BDFFF71AFB63685B08C0186168A5
:101B1000FEF702FB03041B0C0020E7E71C4B1B68CD
:101B2000DB060BD5636858081D4B9C466044616812
:101B3000FEF7F2FA03041B0C0020D7E7636858088D
:101B4000164B9C4660446168FEF7E6FA03041B0CE2
:101B50000020CBE7FEF7E8FE63685B08C018616809
:101B6000FEF7DAFA03041B0C0020BFE7F369FFEF6E
:101B7000FFCFFFFF00480040FFF4FFFF00380140A7
:101B800000440040004C0040005000404C29000838
:101B90000010024000FDFFFFFFFC0F000024F400D6
:101BA00000093D0070290008EFFF000000127A00D4
:101BB0000048E8016368580880231B029C46604483
:101BC0006168FEF7A9FA03041B0C00208EE70120D0
:101BD00000238BE7012091E700208FE701208DE7AC
:101BE00001208BE7012089E7012087E7012085E7B5
:101BF000436ADB0706D5026853682C490B40816AAB
:101C00000B435360436A9B0706D502685368284913
:101C10000B40C16A0B435360436A5B0706D50268F9
:101C2000536824490B40016B0B435360436A1B0705
:101C300006D50268536820490B40416B0B43536043
:101C4000436ADB0606D5026893681C490B40816B2A
:101C50000B439360436A9B0606D502689368184954
:101C60000B40C16B0B439360436A5B060BD5026864
:101C7000536814490B40016C0B43536080235B0392
:101C8000026C9A420AD0436A1B0606D50268536862
:101C90000D490B40816C0B435360704702685368D9
:101CA0000A490B40416C0B435360ECE7FFFFFDFF1B
:101CB000FFFFFEFFFFFFFBFFFF7FFFFFFFEFFFFFC9
:101CC000FFDFFFFFFFFFEFFFFFFFF7FFFFFF9FFFBC
:101CD000F0B5C64600B506000C0017009846069DF4
:101CE0003368DB6923401B1B5A425341BB421CD162
:101CF0006B1CF5D0FEF7DCFB4346C01AA84201D8A6
:101D0000002DEDD1326813680A490B401360326828
:101D10009368A331FF318B43936020237367B367CC
:101D200050330022F254032000E0002004BC90460F
:101D3000F0BDC0465FFEFFFFF0B585B004000E00A9
:101D400017001D00436F202B5FD1002960D0002AAF
:101D500060D080235B0182689A4218D07023E35CD4
:101D6000012B59D070230122E2540023E367213371
:101D70006367FEF79DFB03905023E7520233E7525F
:101D800080235B01A2689A4208D0002716E003690D
:101D9000002BE3D1CB07E1D5012037E02369002BED
:101DA00021D000270AE03B882268DB05DB0D936227
:101DB00002375222A35A013B9BB2A3525223E35A49
:101DC0009BB2002B12D00095039B002280212000A3
:101DD000FFF77EFF002821D1002EE4D0327823685F
:101DE0009A620136E5E737000026E7E70095039B96
:101DF000002240212000FFF76BFF002810D1202394
:101E0000636750330022E25400E0022005B0F0BDC9
:101E10000120FBE70120F9E70220F7E70320F5E7BF
:101E20000320F3E730B583B004000023C367FEF757
:101E30003FFB050023681B681B070CD423681B6845
:101E40005B0715D420236367A36750330022E25455
:101E5000002003B030BD80210C4B00930300002212
:101E600089032000FFF734FF0028E7D00320F0E7C4
:101E70008021064B00932B000022C9032000FFF7AE
:101E800027FF0028DED00320E3E7C046FFFFFF0165
:101E900010B5041E2ED0436F002B21D0242363677E
:101EA0002268136801218B4313602000FFF7DEFCDA
:101EB000012814D0636A002B18D1226853680E4998
:101EC0000B405360226893682A218B4393602268F9
:101ED000136829390B4313602000FFF7A3FF10BDDF
:101EE00070330022C25400F063FBD7E72000FFF7F5
:101EF0007FFEE2E70120F2E7FFB7FFFF7047000037
:101F000000B583B0094A116B012319431163126BA9
:101F100013400193019B002200210A20FEF7DCFA06
:101F20000A20FEF709FB03B000BDC04600100240C6
:101F3000BFF34F8F034B044ADA60BFF34F8FC046A5
:101F4000FDE7C04600ED00E00400FA0510B564228C
:101F50002021024800F01FFC10BDC0468400002074
:101F600010B50123094C5B42032209492000FFF709
:101F7000E3FE2000FFF702FB642206492000FFF782
:101F80007DFA0548FEF79AFA10BDC046040200200B
:101F9000B8290008840000204C040000014B58665A
:101FA0007047C0468400002070B50500124E340012
:101FB00068340100200000F067FC2000FEF7A4F860
:101FC000201803220D4900F0DDFB2800FEF79CF8E5
:101FD0000123023082B20A4D5B4221002800FFF744
:101FE000ABFE2800FFF7CAFA642231002800FFF791
:101FF00045FAFFF7ABFF70BD84000020BC29000844
:102000000402002000B587B0074B5B6E07485843B9
:10201000074B9C4660440A2201A900F0A5FB01A8D9
:10202000FFF7C2FF07B000BD8400002010270000AA
:102030000F27000010B50100034800F02DFC431EDF
:102040009841C0B210BDC0468400002070B50500A4
:102050000800094900F024FA040000F04BFA2800B7
:10206000FFF7E8FF002805D10021200000F029FA41
:102070000028F4D070BDC046311F000810B50A48D2
:10208000FFF792FFFA24640021000848FFF7DEFF03
:102090000748FFF789FF21000648FFF7D7FF064BE7
:1020A00003221A7010BDC046C0290008D0290008BC
:1020B000D4290008E02900083401002010B50648A2
:1020C000FFF772FFFA2189000448FFF7BFFF044BB6
:1020D00002221A7010BDC046E4290008D029000869
:1020E0003401002010B51148FFF75EFFFA214900C6
:1020F0000F48FFF7ABFF0F48FFF79CFF00280DD1FB
:102100000D48FFF797FF002808D10C48FFF792FF12
:10211000002807D10A4B00221A7002E0084B012266
:102120001A7010BD064B02221A70FAE70C2A00083A
:10213000D02900081C2A0008282A0008342A000890
:102140003401002010B504000F48FEF7B7F9200055
:10215000FFF724FFFFF704FFFFF7C4FF0B4B1B78CB
:10216000012B08D0094B1B78022B07D0074B1B789B
:10217000032B06D010BDFFF7A1FFF3E7FFF77EFFAB
:10218000F4E7FFF73FFFF5E7881300003401002074
:1021900010B5FFF7E5FE0748FFF706FF0648FFF713
:1021A00003FF06490648FFF751FF064B586EFFF73D
:1021B000C9FF10BD402A00084C2A0008E02E00008C
:1021C000582A00088400002010B50C48FFF732FFA1
:1021D00000280BD10A48FFF72DFF002809D1A022C3
:1021E000D205536920214B40536110BDFFF70AFF10
:1021F000FBE7044B586EFFF7A5FFF6E7642A0008DB
:10220000702A00088400002010B5642202490348A7
:10221000FFF734F910BDC0468400002004020020FE
:10222000F0B589B01422002103A800F0B4FA224BC3
:10223000D96A04221143D962D96A0A400092009AED
:10224000DA6A80273A43DA62DA6A3A400192019AFE
:10225000DA6A01252A43DA62DB6A2B400293029B89
:1022600000222021A020C005FEF757FB134E0022BC
:1022700080213000FEF751FB80239B010393104B1C
:1022800004930024059403A93000FEF771FA20237B
:10229000039304950594069403A9A020C005FEF7B6
:1022A00067FA039704950594069403A93000FEF796
:1022B0005FFA09B0F0BDC0460010024000080050AF
:1022C0000000111010B5034B984200D010BDFFF76D
:1022D0009BFFFBE70402002030B59FB038220021AD
:1022E00010A800F058FA142200210BA800F053FAAD
:1022F0002822002101A800F04EFA12490B68124A68
:102300001A4080231B0113430B6002231093012505
:1023100013950E33149300241A9410A8FEF75CFB57
:102320000F230B930C9571330D930E940F94002192
:102330000BA8FEF719FE0195049401A8FEF70EFF05
:102340001FB030BD00700040FFE7FFFF10B5FEF783
:1023500093F8FFF7C1FFFFF763FF00F0CFF800F03D
:1023600009F9FFF7CDFDA023DB0520229A610E4B72
:1023700060329A614720FFF7E5FEFA200B49C00062
:1023800000F08EF8040000F0B5F803E00021200012
:1023900000F097F8802189010348FEF7B7FA00287A
:1023A000F4D1FFF7F5FEF1E700080050C92100085D
:1023B00070470000054B5A6B01210A435A63996B21
:1023C000802252050A439A637047C04600100240BB
:1023D0007047FEE77047704710B5FEF761F810BD13
:1023E00010B50348FEF765F90248FEF762F910BD23
:1023F00074010020BC01002010B50248FFF78AF9E3
:1024000010BDC0460402002010B503000B4A12683C
:10241000002A08D0094A1068C3186A46934206D8B1
:10242000064A136010BD054A05491160F2E700F045
:1024300059F90C23036001204042F3E720010020FA
:1024400088020020104B1968802252000A431A604B
:10245000DA680E490A40DA601A680D490A401A60C3
:102460009A6801218A439A601A680A490A401A60E8
:10247000DA6809490A40DA6000221A61074B8022B3
:1024800012059A607047C046001002400C40FF8859
:10249000F6FFF6FEFFFFFBFFFFFF02FF00ED00E08F
:1024A00070B506000D00102000F062F9041E06D081
:1024B000002303704660C560FDF7FAFFA0602000AE
:1024C00070BD70B504000D00FDF7F2FFA368C01ADF
:1024D000636898420BD32678002E09D0FDF7E8FFF9
:1024E000A060E368002B03D02800984700E0002696
:1024F000300070BD012303707047000000B583B049
:1025000008220021684600F046F90F480F4B03608F
:102510000023436083600E4AC2604361FEF75EFFA2
:1025200000280AD100230093019369460648FEF76C
:102530006FFF002804D103B000BDFFF739FFF1E7BA
:10254000FFF736FFF7E7C0463801002000100040D3
:10255000FFFF00000268054B9A4200D07047044A12
:10256000936B10210B439363F8E7C04600100040C3
:102570000010024010B50C480C4B0360E1235B02D5
:10258000436000238360C36003610C224261836166
:10259000C36103624362FFF77BFC002800D110BDDA
:1025A000FFF706FFFBE7C0460402002000380140A9
:1025B00030B587B004001422002101A800F0EBF828
:1025C0002D4B22689A4201D007B030BD2B4B596B7E
:1025D0008022D2010A435A63D96A01221143D96287
:1025E000DB6A1A400092009BC023DB0001930223A8
:1025F00002930325049502330593A02001A9C00589
:10260000FEF7B6F81E481F4B036045600023836049
:10261000C3608022026143618361C3610362FDF78D
:10262000B1FF002821D1164BE3669C621648174B78
:102630000360032343600D3383600023C360802263
:10264000026143618361C3610362FDF79BFF002860
:102650000ED10D4BA3669C62002200211B20FDF7CA
:102660003BFF1B20FDF768FFAEE7FFF7A1FEDAE7AF
:10267000FFF79EFEEDE7C046003801400010024023
:10268000BC01002030000240740100201C00024008
:102690000D488546002103E00C4B5B584350043144
:1026A0000B480C4B42189A42F6D30B4A02E0002327
:1026B00013600432094B9A42F9D3FFF7C3FE00F0CE
:1026C00017F8FFF743FEFEE700500020B02A00088D
:1026D0000000002068000020680000208802002020
:1026E000FEE70000014B18687047C0460400002058
:1026F00070B500260C4D0D4C641BA410A64209D1E8
:10270000002600F017F90A4D0A4C641BA410A642DB
:1027100005D170BDB300EB5898470136EEE7B30022
:10272000EB5898470136F2E7A82A0008A82A0008C3
:10273000A82A0008AC2A0008931E10B50C00222B12
:1027400004D900231C000B70200010BD0A2A09D1F7
:10275000002807DA2D230B7001214042611800F098
:10276000B5F8F1E70021F9E710B5FFF7E5FF10BD77
:1027700010B5034B0100186800F016F810BDC046F4
:1027800004000020002310B59A4200D110BDCC5C9B
:10279000C4540133F8E703001218934200D1704784
:1027A00019700133F9E70000032370B5CD1C9D4378
:1027B000083506000C2D1ED20C25A9421DD830006C
:1027C00000F0B6F8254A14682100002919D1244CDC
:1027D0002368002B03D1300000F044F8206029006A
:1027E000300000F03FF8431C2BD10C233000336045
:1027F00000F09FF803E0002DDFDA0C2333600020A7
:1028000070BD0B685B1B19D40B2B03D90B60CC1864
:10281000256003E04B688C420DD11360300000F05E
:1028200088F8200007220B30231D9043C31AE7D0FD
:102830005A42E250E4E763600C00EFE70C0049689D
:10284000C3E70323C41C9C43A042E1D0211A3000FB
:1028500000F008F8431CDBD1C7E7C0462801002080
:102860002C010020002370B5064C050008002360F1
:10287000FFF7CAFD431C03D12368002B00D02B6057
:1028800070BDC0468402002003000A7801311A702E
:102890000133002AF9D1704710B50378002B0FD10E
:1028A0000B785A4253415B42184010BD0023CA5C6A
:1028B000002AFAD0C45C944201D10133F7E7013019
:1028C0000378002BF2D11800EFE70000F0B51700F5
:1028D0008DB0252206000D0002A81449FFF752FF13
:1028E00002AABB1E00240192222B05D92C702500C0
:1028F00028000DB0F0BD140030003900FDF792FC47
:1029000084460198621CAB18415C5E1E31706646BD
:10291000002EF0D11E702B005A1B9442E8DD1A786D
:10292000295D19702A550133013CF5E7782A000822
:1029300070477047F8B5C046F8BC08BC9E46704763
:0C294000F8B5C046F8BC08BC9E467047C5
:10294C00D61A0008041B00081C1B0008CE1B00082C
:10295C00541B0008CE1B0008CE1B0008CE1B000821
:10296C00B41B0008121A00084A1A0008641A00085E
:10297C00D01A00089C1A0008D01A0008D01A0008B7
:10298C00D01A0008B61A0008030406080C10182008
:10299C0030000000000000000000000001020304F1
:1029AC000607080900000000010203042B2B2B0072
:1029BC000D0A000041542B4349504D4F44453D31C5
:1029CC00000000004F4B000041542B43495053452D
:1029DC004E4400003E00000041542B4349505354D8
:1029EC004152543D22544350222C223139322E3143
:1029FC0036382E302E313433222C3133333700001D
:102A0C0041542B434950535441545553000000003A
:102A1C005354415455533A3200000000535441541E
:102A2C0055533A34000000005354415455533A3333
:102A3C000000000041542B43574D4F44453D31009D
:102A4C0041542B5750533D3100000000636F6E6EA4
:102A5C00656374696E670000436F6E6E65637465C1
:102A6C00640000004552524F5200000030313233A6
:102A7C003435363738396162636465666768696A0C
:102A8C006B6C6D6E6F707172737475767778797A12
:042A9C000000000036
:082AA000D0D7FF7F0100000008
:042AA800E900000839
:042AAC00C10000085D
:102AB00000002000080000200000000000000000CE
:102AC0000000000000000000000000000000000006
:102AD00000000000000000000000000000000000F6
:102AE00000000000000000000000000000000000E6
:102AF00000000000000000000000000000000000D6
:102B000000000000000000000000000000000000C5
:082B10000000000000000000BD
:040000050800269138
:00000001FF
